{
  "contractName": "MusicRecords",
  "abi": [
    {
      "constant": false,
      "inputs": [
        {
          "name": "_iswc",
          "type": "bytes32"
        }
      ],
      "name": "getTrackDetailsByIswc",
      "outputs": [
        {
          "name": "",
          "type": "bytes32[]"
        }
      ],
      "payable": false,
      "stateMutability": "nonpayable",
      "type": "function"
    },
    {
      "constant": false,
      "inputs": [
        {
          "name": "download",
          "type": "string"
        },
        {
          "name": "stream",
          "type": "string"
        }
      ],
      "name": "setSettingsPublish",
      "outputs": [],
      "payable": false,
      "stateMutability": "nonpayable",
      "type": "function"
    },
    {
      "constant": false,
      "inputs": [
        {
          "name": "download",
          "type": "string"
        },
        {
          "name": "stream",
          "type": "string"
        }
      ],
      "name": "setSettingsRevenue",
      "outputs": [],
      "payable": false,
      "stateMutability": "nonpayable",
      "type": "function"
    },
    {
      "constant": false,
      "inputs": [
        {
          "name": "_isrc",
          "type": "bytes32"
        },
        {
          "name": "_iswc",
          "type": "bytes32"
        },
        {
          "name": "_mpn",
          "type": "string"
        },
        {
          "name": "_trackDetails",
          "type": "string"
        }
      ],
      "name": "saveTrackDetails",
      "outputs": [],
      "payable": false,
      "stateMutability": "nonpayable",
      "type": "function"
    },
    {
      "constant": true,
      "inputs": [],
      "name": "getSettings",
      "outputs": [
        {
          "name": "download_publish",
          "type": "string"
        },
        {
          "name": "stream_publish",
          "type": "string"
        },
        {
          "name": "download_record",
          "type": "string"
        },
        {
          "name": "stream_record",
          "type": "string"
        },
        {
          "name": "download_revenue",
          "type": "string"
        },
        {
          "name": "stream_revenue",
          "type": "string"
        }
      ],
      "payable": false,
      "stateMutability": "view",
      "type": "function"
    },
    {
      "constant": true,
      "inputs": [
        {
          "name": "",
          "type": "uint256"
        }
      ],
      "name": "isrcKeyArray",
      "outputs": [
        {
          "name": "",
          "type": "bytes32"
        }
      ],
      "payable": false,
      "stateMutability": "view",
      "type": "function"
    },
    {
      "constant": true,
      "inputs": [
        {
          "name": "isrc",
          "type": "bytes32"
        }
      ],
      "name": "getTrackDetails",
      "outputs": [
        {
          "name": "_trackDetails",
          "type": "string"
        },
        {
          "name": "_iswc",
          "type": "bytes32"
        },
        {
          "name": "_mpn",
          "type": "string"
        }
      ],
      "payable": false,
      "stateMutability": "view",
      "type": "function"
    },
    {
      "constant": true,
      "inputs": [],
      "name": "c",
      "outputs": [
        {
          "name": "",
          "type": "uint256"
        }
      ],
      "payable": false,
      "stateMutability": "view",
      "type": "function"
    },
    {
      "constant": false,
      "inputs": [
        {
          "name": "download",
          "type": "string"
        },
        {
          "name": "stream",
          "type": "string"
        }
      ],
      "name": "setSettingsRecord",
      "outputs": [],
      "payable": false,
      "stateMutability": "nonpayable",
      "type": "function"
    },
    {
      "constant": false,
      "inputs": [
        {
          "name": "_iswc",
          "type": "bytes32"
        }
      ],
      "name": "getCount",
      "outputs": [],
      "payable": false,
      "stateMutability": "nonpayable",
      "type": "function"
    },
    {
      "anonymous": false,
      "inputs": [
        {
          "indexed": false,
          "name": "_isrc",
          "type": "bytes32"
        }
      ],
      "name": "TrackDetailsEvent",
      "type": "event"
    },
    {
      "anonymous": false,
      "inputs": [
        {
          "indexed": false,
          "name": "_used",
          "type": "bool"
        }
      ],
      "name": "TrackDetailsUsed",
      "type": "event"
    }
  ],
  "bytecode": "0x6060604052341561000f57600080fd5b6116188061001e6000396000f3006060604052600436106100a4576000357c0100000000000000000000000000000000000000000000000000000000900463ffffffff16806320136207146100a95780632c4b127514610125578063310f30b6146101c55780637091c9de1461026557806385b4bb531461031f57806390748d5c146105c9578063c30726bb14610608578063c3da42b814610723578063c642316d1461074c578063c9d6fee9146107ec575b600080fd5b34156100b457600080fd5b6100ce600480803560001916906020019091905050610813565b6040518080602001828103825283818151815260200191508051906020019060200280838360005b838110156101115780820151818401526020810190506100f6565b505050509050019250505060405180910390f35b341561013057600080fd5b6101c3600480803590602001908201803590602001908080601f0160208091040260200160405190810160405280939291908181526020018383808284378201915050505050509190803590602001908201803590602001908080601f01602080910402602001604051908101604052809392919081815260200183838082843782019150505050505091905050610921565b005b34156101d057600080fd5b610263600480803590602001908201803590602001908080601f0160208091040260200160405190810160405280939291908181526020018383808284378201915050505050509190803590602001908201803590602001908080601f016020809104026020016040519081016040528093929190818152602001838380828437820191505050505050919050506109cb565b005b341561027057600080fd5b61031d6004808035600019169060200190919080356000191690602001909190803590602001908201803590602001908080601f0160208091040260200160405190810160405280939291908181526020018383808284378201915050505050509190803590602001908201803590602001908080601f01602080910402602001604051908101604052809392919081815260200183838082843782019150505050505091905050610a75565b005b341561032a57600080fd5b610332610c2f565b6040518080602001806020018060200180602001806020018060200187810387528d818151815260200191508051906020019080838360005b8381101561038657808201518184015260208101905061036b565b50505050905090810190601f1680156103b35780820380516001836020036101000a031916815260200191505b5087810386528c818151815260200191508051906020019080838360005b838110156103ec5780820151818401526020810190506103d1565b50505050905090810190601f1680156104195780820380516001836020036101000a031916815260200191505b5087810385528b818151815260200191508051906020019080838360005b83811015610452578082015181840152602081019050610437565b50505050905090810190601f16801561047f5780820380516001836020036101000a031916815260200191505b5087810384528a818151815260200191508051906020019080838360005b838110156104b857808201518184015260208101905061049d565b50505050905090810190601f1680156104e55780820380516001836020036101000a031916815260200191505b50878103835289818151815260200191508051906020019080838360005b8381101561051e578082015181840152602081019050610503565b50505050905090810190601f16801561054b5780820380516001836020036101000a031916815260200191505b50878103825288818151815260200191508051906020019080838360005b83811015610584578082015181840152602081019050610569565b50505050905090810190601f1680156105b15780820380516001836020036101000a031916815260200191505b509c5050505050505050505050505060405180910390f35b34156105d457600080fd5b6105ea600480803590602001909190505061117d565b60405180826000191660001916815260200191505060405180910390f35b341561061357600080fd5b61062d6004808035600019169060200190919050506111a1565b6040518080602001846000191660001916815260200180602001838103835286818151815260200191508051906020019080838360005b8381101561067f578082015181840152602081019050610664565b50505050905090810190601f1680156106ac5780820380516001836020036101000a031916815260200191505b50838103825284818151815260200191508051906020019080838360005b838110156106e55780820151818401526020810190506106ca565b50505050905090810190601f1680156107125780820380516001836020036101000a031916815260200191505b509550505050505060405180910390f35b341561072e57600080fd5b610736611387565b6040518082815260200191505060405180910390f35b341561075757600080fd5b6107ea600480803590602001908201803590602001908080601f0160208091040260200160405190810160405280939291908181526020018383808284378201915050505050509190803590602001908201803590602001908080601f0160208091040260200160405190810160405280939291908181526020018383808284378201915050505050509190505061138d565b005b34156107f757600080fd5b610811600480803560001916906020019091905050611437565b005b61081b6114ce565b6108236114ce565b60008060008061083287611437565b6004546040518059106108425750595b908082528060200260200182016040525094506001805490509250600090505b828160ff1610156109145760008060018360ff1681548110151561088257fe5b906000526020600020900154600019166000191681526020019081526020016000206001015493508660001916846000191614156109075760018160ff168154811015156108cc57fe5b90600052602060002090015485838151811015156108e657fe5b90602001906020020190600019169081600019168152505081806001019250505b8080600101915050610862565b8495505050505050919050565b81600260405180807f646f776e6c6f61645f7075626c697368000000000000000000000000000000008152506010019050908152602001604051809103902090805190602001906109739291906114e2565b5080600260405180807f73747265616d5f7075626c697368000000000000000000000000000000000000815250600e019050908152602001604051809103902090805190602001906109c69291906114e2565b505050565b81600260405180807f646f776e6c6f61645f726576656e756500000000000000000000000000000000815250601001905090815260200160405180910390209080519060200190610a1d9291906114e2565b5080600260405180807f73747265616d5f726576656e7565000000000000000000000000000000000000815250600e01905090815260200160405180910390209080519060200190610a709291906114e2565b505050565b6000846001900414158015610a8c57506000815114155b1515610a9757600080fd5b60011515600080866000191660001916815260200190815260200160002060030160009054906101000a900460ff16151514151515610ad557600080fd5b60018054806001018281610ae99190611562565b9160005260206000209001600086909190915090600019169055508060008086600019166000191681526020019081526020016000206000019080519060200190610b359291906114e2565b5082600080866000191660001916815260200190815260200160002060010181600019169055508160008086600019166000191681526020019081526020016000206002019080519060200190610b8d9291906114e2565b506001600080866000191660001916815260200190815260200160002060030160006101000a81548160ff0219169083151502179055507fa05a317f0f7df9a4e0cc80fb653c9dc4a901751ca33755a2895172de524cb833600080866000191660001916815260200190815260200160002060030160009054906101000a900460ff16604051808215151515815260200191505060405180910390a150505050565b610c3761158e565b610c3f61158e565b610c4761158e565b610c4f61158e565b610c5761158e565b610c5f61158e565b600260405180807f646f776e6c6f61645f7075626c69736800000000000000000000000000000000815250601001905090815260200160405180910390208054600181600116156101000203166002900480601f016020809104026020016040519081016040528092919081815260200182805460018160011615610100020316600290048015610d315780601f10610d0657610100808354040283529160200191610d31565b820191906000526020600020905b815481529060010190602001808311610d1457829003601f168201915b50505050509550600260405180807f73747265616d5f7075626c697368000000000000000000000000000000000000815250600e01905090815260200160405180910390208054600181600116156101000203166002900480601f016020809104026020016040519081016040528092919081815260200182805460018160011615610100020316600290048015610e0a5780601f10610ddf57610100808354040283529160200191610e0a565b820191906000526020600020905b815481529060010190602001808311610ded57829003601f168201915b50505050509450600260405180807f646f776e6c6f61645f7265636f72640000000000000000000000000000000000815250600f01905090815260200160405180910390208054600181600116156101000203166002900480601f016020809104026020016040519081016040528092919081815260200182805460018160011615610100020316600290048015610ee35780601f10610eb857610100808354040283529160200191610ee3565b820191906000526020600020905b815481529060010190602001808311610ec657829003601f168201915b50505050509350600260405180807f73747265616d5f7265636f726400000000000000000000000000000000000000815250600d01905090815260200160405180910390208054600181600116156101000203166002900480601f016020809104026020016040519081016040528092919081815260200182805460018160011615610100020316600290048015610fbc5780601f10610f9157610100808354040283529160200191610fbc565b820191906000526020600020905b815481529060010190602001808311610f9f57829003601f168201915b50505050509250600260405180807f646f776e6c6f61645f726576656e756500000000000000000000000000000000815250601001905090815260200160405180910390208054600181600116156101000203166002900480601f0160208091040260200160405190810160405280929190818152602001828054600181600116156101000203166002900480156110955780601f1061106a57610100808354040283529160200191611095565b820191906000526020600020905b81548152906001019060200180831161107857829003601f168201915b50505050509150600260405180807f73747265616d5f726576656e7565000000000000000000000000000000000000815250600e01905090815260200160405180910390208054600181600116156101000203166002900480601f01602080910402602001604051908101604052809291908181526020018280546001816001161561010002031660029004801561116e5780601f106111435761010080835404028352916020019161116e565b820191906000526020600020905b81548152906001019060200180831161115157829003601f168201915b50505050509050909192939495565b60018181548110151561118c57fe5b90600052602060002090016000915090505481565b6111a961158e565b60006111b361158e565b60011515600080866000191660001916815260200190815260200160002060030160009054906101000a900460ff1615151415156111f057600080fd5b60008085600019166000191681526020019081526020016000206000018054600181600116156101000203166002900480601f0160208091040260200160405190810160405280929190818152602001828054600181600116156101000203166002900480156112a15780601f10611276576101008083540402835291602001916112a1565b820191906000526020600020905b81548152906001019060200180831161128457829003601f168201915b50505050509250600080856000191660001916815260200190815260200160002060010154915060008085600019166000191681526020019081526020016000206002018054600181600116156101000203166002900480601f0160208091040260200160405190810160405280929190818152602001828054600181600116156101000203166002900480156113795780601f1061134e57610100808354040283529160200191611379565b820191906000526020600020905b81548152906001019060200180831161135c57829003601f168201915b505050505090509193909250565b60045481565b81600260405180807f646f776e6c6f61645f7265636f72640000000000000000000000000000000000815250600f019050908152602001604051809103902090805190602001906113df9291906114e2565b5080600260405180807f73747265616d5f7265636f726400000000000000000000000000000000000000815250600d019050908152602001604051809103902090805190602001906114329291906114e2565b505050565b6000806000806004819055506001805490509150600090505b818160ff1610156114c85760008060018360ff1681548110151561147057fe5b906000526020600020900154600019166000191681526020019081526020016000206001015492508360001916836000191614156114bb576004600081548092919060010191905055505b8080600101915050611450565b50505050565b602060405190810160405280600081525090565b828054600181600116156101000203166002900490600052602060002090601f016020900481019282601f1061152357805160ff1916838001178555611551565b82800160010185558215611551579182015b82811115611550578251825591602001919060010190611535565b5b50905061155e91906115a2565b5090565b8154818355818115116115895781836000526020600020918201910161158891906115c7565b5b505050565b602060405190810160405280600081525090565b6115c491905b808211156115c05760008160009055506001016115a8565b5090565b90565b6115e991905b808211156115e55760008160009055506001016115cd565b5090565b905600a165627a7a72305820408d21a97196b720d00fc7cc8bac63c9451446a2889c8e5395ce95c4fe8860900029",
  "source": "pragma solidity ^0.4.4;\n\n\ncontract MusicRecords {\n\n    struct TrackDetails {\n        string details;\n        bytes32 iswc;\n        string mpn;      // music project name\n        bool used;\n    }\n\n    mapping(bytes32 => TrackDetails) track;\n    bytes32[] public isrcKeyArray;\n    mapping(string => string) settings;\n    mapping(string => uint) ratio;\n    uint  public c;\n\n    event TrackDetailsEvent(bytes32 _isrc);\n    event TrackDetailsUsed(bool _used);\n\n    function setSettingsPublish(string download, string stream) public {\n        settings['download_publish'] = download;\n        settings['stream_publish'] = stream;\n    }\n\n    function setSettingsRecord(string download, string stream) public {\n        settings['download_record'] = download;\n        settings['stream_record'] = stream;\n    }\n\n    function setSettingsRevenue(string download, string stream) public {\n        settings['download_revenue'] = download;\n        settings['stream_revenue'] = stream;\n    }\n\n    function getSettings() public constant returns (\n        string download_publish,\n        string stream_publish,\n        string download_record,\n        string stream_record,\n        string download_revenue,\n        string stream_revenue){\n        download_publish = settings['download_publish'];\n        stream_publish = settings['stream_publish'];\n        download_record = settings['download_record'];\n        stream_record = settings['stream_record'];\n        download_revenue = settings['download_revenue'];\n        stream_revenue = settings['stream_revenue'];\n    }\n\n    function saveTrackDetails(bytes32 _isrc, bytes32 _iswc, string _mpn, string _trackDetails) public {\n\n        require(int(_isrc) != 0 && bytes(_trackDetails).length != 0);\n        require(track[_isrc].used != true);\n        isrcKeyArray.push(_isrc);\n        track[_isrc].details = _trackDetails;\n        track[_isrc].iswc = _iswc;\n        track[_isrc].mpn = _mpn;\n        track[_isrc].used = true;\n\n        TrackDetailsUsed(track[_isrc].used);\n\n    }\n\n    function getTrackDetails(bytes32 isrc) public constant returns (string _trackDetails, bytes32 _iswc, string _mpn) {\n\n        require(track[isrc].used == true);\n        _trackDetails = track[isrc].details;\n        _iswc = track[isrc].iswc;\n        _mpn = track[isrc].mpn;\n    }\n\n    function getCount(bytes32 _iswc) public {\n        bytes32 tempiswc;\n        c = 0;\n        uint count = isrcKeyArray.length;\n        for (uint8 i=0; i < count; i++) {\n            tempiswc = track[isrcKeyArray[i]].iswc;\n            if (tempiswc == _iswc) {\n                c++;\n            }\n        }\n    }\n\n    function getTrackDetailsByIswc(bytes32 _iswc) public returns(bytes32[]) {\n        getCount(_iswc);\n        bytes32[] memory isrc = new bytes32[](c);\n\n        bytes32 tempiswc;\n        uint count = isrcKeyArray.length;\n        uint j;\n        for (uint8 i=0; i < count; i++) {\n            tempiswc = track[isrcKeyArray[i]].iswc;\n            if (tempiswc == _iswc) {\n                isrc[j] = isrcKeyArray[i];\n                j++;\n            }\n        }\n        return isrc;\n    }\n}\n",
  "sourcePath": "/Users/sibizulu/Code/Asset-Ownership-Distribution/contracts/MusicRecords.sol",
  "compiler": {
    "name": "solc",
    "version": "0.4.18+commit.9cf6e910.Emscripten.clang"
  },
  "schemaVersion": "1.0.1",
  "updatedAt": "2018-01-15T07:25:05.942Z"
}